{
  "_format": "hh-sol-artifact-1",
  "contractName": "Escrow",
  "sourceName": "contracts/Escrow.sol",
  "abi": [
    {
      "inputs": [
        {
          "internalType": "address",
          "name": "_invoiceRegistry",
          "type": "address"
        },
        {
          "internalType": "address",
          "name": "_offerMarket",
          "type": "address"
        }
      ],
      "stateMutability": "nonpayable",
      "type": "constructor"
    },
    {
      "anonymous": false,
      "inputs": [
        {
          "indexed": true,
          "internalType": "uint256",
          "name": "invoiceId",
          "type": "uint256"
        },
        {
          "indexed": false,
          "internalType": "enum InvoiceRegistry.InvoiceStatus",
          "name": "status",
          "type": "uint8"
        }
      ],
      "name": "FundsLocked",
      "type": "event"
    },
    {
      "anonymous": false,
      "inputs": [
        {
          "indexed": true,
          "internalType": "uint256",
          "name": "invoiceId",
          "type": "uint256"
        },
        {
          "indexed": false,
          "internalType": "enum InvoiceRegistry.InvoiceStatus",
          "name": "status",
          "type": "uint8"
        }
      ],
      "name": "FundsReleased",
      "type": "event"
    },
    {
      "anonymous": false,
      "inputs": [
        {
          "indexed": true,
          "internalType": "uint256",
          "name": "invoiceId",
          "type": "uint256"
        },
        {
          "indexed": false,
          "internalType": "enum InvoiceRegistry.InvoiceStatus",
          "name": "status",
          "type": "uint8"
        }
      ],
      "name": "InvoiceRepaid",
      "type": "event"
    },
    {
      "anonymous": false,
      "inputs": [
        {
          "indexed": true,
          "internalType": "uint256",
          "name": "invoiceId",
          "type": "uint256"
        },
        {
          "indexed": false,
          "internalType": "enum InvoiceRegistry.InvoiceStatus",
          "name": "status",
          "type": "uint8"
        }
      ],
      "name": "InvoiceSettled",
      "type": "event"
    },
    {
      "inputs": [
        {
          "internalType": "uint256",
          "name": "invoiceId",
          "type": "uint256"
        }
      ],
      "name": "getVault",
      "outputs": [
        {
          "internalType": "uint256",
          "name": "offerId",
          "type": "uint256"
        },
        {
          "internalType": "address",
          "name": "lender",
          "type": "address"
        },
        {
          "internalType": "address",
          "name": "merchant",
          "type": "address"
        },
        {
          "internalType": "uint256",
          "name": "amount",
          "type": "uint256"
        },
        {
          "internalType": "uint256",
          "name": "repaymentAmount",
          "type": "uint256"
        },
        {
          "internalType": "bool",
          "name": "fundsReleased",
          "type": "bool"
        },
        {
          "internalType": "bool",
          "name": "repaid",
          "type": "bool"
        },
        {
          "internalType": "bool",
          "name": "settled",
          "type": "bool"
        }
      ],
      "stateMutability": "view",
      "type": "function"
    },
    {
      "inputs": [],
      "name": "invoiceRegistry",
      "outputs": [
        {
          "internalType": "contract InvoiceRegistry",
          "name": "",
          "type": "address"
        }
      ],
      "stateMutability": "view",
      "type": "function"
    },
    {
      "inputs": [
        {
          "internalType": "uint256",
          "name": "invoiceId",
          "type": "uint256"
        },
        {
          "internalType": "uint256",
          "name": "offerId",
          "type": "uint256"
        }
      ],
      "name": "lockFunds",
      "outputs": [],
      "stateMutability": "payable",
      "type": "function"
    },
    {
      "inputs": [],
      "name": "offerMarket",
      "outputs": [
        {
          "internalType": "contract OfferMarket",
          "name": "",
          "type": "address"
        }
      ],
      "stateMutability": "view",
      "type": "function"
    },
    {
      "inputs": [
        {
          "internalType": "uint256",
          "name": "invoiceId",
          "type": "uint256"
        }
      ],
      "name": "releaseFunds",
      "outputs": [],
      "stateMutability": "nonpayable",
      "type": "function"
    },
    {
      "inputs": [
        {
          "internalType": "uint256",
          "name": "invoiceId",
          "type": "uint256"
        }
      ],
      "name": "repay",
      "outputs": [],
      "stateMutability": "payable",
      "type": "function"
    },
    {
      "inputs": [
        {
          "internalType": "uint256",
          "name": "invoiceId",
          "type": "uint256"
        }
      ],
      "name": "settleInvoice",
      "outputs": [],
      "stateMutability": "nonpayable",
      "type": "function"
    }
  ],
  "bytecode": "0x60c060405234801561000f575f5ffd5b5060405161213d38038061213d833981810160405281019061003191906101da565b5f73ffffffffffffffffffffffffffffffffffffffff168273ffffffffffffffffffffffffffffffffffffffff160361009f576040517f08c379a000000000000000000000000000000000000000000000000000000000815260040161009690610272565b60405180910390fd5b5f73ffffffffffffffffffffffffffffffffffffffff168173ffffffffffffffffffffffffffffffffffffffff160361010d576040517f08c379a0000000000000000000000000000000000000000000000000000000008152600401610104906102da565b60405180910390fd5b8173ffffffffffffffffffffffffffffffffffffffff1660808173ffffffffffffffffffffffffffffffffffffffff16815250508073ffffffffffffffffffffffffffffffffffffffff1660a08173ffffffffffffffffffffffffffffffffffffffff168152505050506102f8565b5f5ffd5b5f73ffffffffffffffffffffffffffffffffffffffff82169050919050565b5f6101a982610180565b9050919050565b6101b98161019f565b81146101c3575f5ffd5b50565b5f815190506101d4816101b0565b92915050565b5f5f604083850312156101f0576101ef61017c565b5b5f6101fd858286016101c6565b925050602061020e858286016101c6565b9150509250929050565b5f82825260208201905092915050565b7f457363726f773a20696e76616c696420726567697374727920616464726573735f82015250565b5f61025c602083610218565b915061026782610228565b602082019050919050565b5f6020820190508181035f83015261028981610250565b9050919050565b7f457363726f773a20696e76616c6964206d61726b6574206164647265737300005f82015250565b5f6102c4601e83610218565b91506102cf82610290565b602082019050919050565b5f6020820190508181035f8301526102f1816102b8565b9050919050565b60805160a051611dfa6103435f395f818161019401528181610263015261034e01525f818161052f0152818161094001528181610c2c01528181610e9901526110230152611dfa5ff3fe60806040526004361061006f575f3560e01c80634d68282f1161004d5780634d68282f146100d55780635b94446c146100fd5780639403b63414610125578063da6c70e4146101685761006f565b806319a2c2ba146100735780633287db4b1461009d578063371fd8e6146100b9575b5f5ffd5b34801561007e575f5ffd5b50610087610192565b60405161009491906110bf565b60405180910390f35b6100b760048036038101906100b2919061111c565b6101b6565b005b6100d360048036038101906100ce919061115a565b610790565b005b3480156100e0575f5ffd5b506100fb60048036038101906100f6919061115a565b610a04565b005b348015610108575f5ffd5b50610123600480360381019061011e919061115a565b610cf1565b005b348015610130575f5ffd5b5061014b6004803603810190610146919061115a565b610f5f565b60405161015f9897969594939291906111ce565b60405180910390f35b348015610173575f5ffd5b5061017c611021565b604051610189919061126a565b60405180910390f35b7f000000000000000000000000000000000000000000000000000000000000000081565b5f34116101f8576040517f08c379a00000000000000000000000000000000000000000000000000000000081526004016101ef906112dd565b60405180910390fd5b5f5f5f8481526020019081526020015f20600301541461024d576040517f08c379a00000000000000000000000000000000000000000000000000000000081526004016102449061136b565b60405180910390fd5b6001600281111561026157610260611389565b5b7f000000000000000000000000000000000000000000000000000000000000000073ffffffffffffffffffffffffffffffffffffffff1663dc2d98d2836040518263ffffffff1660e01b81526004016102ba91906113b6565b602060405180830381865afa1580156102d5573d5f5f3e3d5ffd5b505050506040513d601f19601f820116820180604052508101906102f991906113f2565b600281111561030b5761030a611389565b5b1461034b576040517f08c379a000000000000000000000000000000000000000000000000000000000815260040161034290611467565b60405180910390fd5b5f7f000000000000000000000000000000000000000000000000000000000000000073ffffffffffffffffffffffffffffffffffffffff1663db89aceb846040518263ffffffff1660e01b81526004016103a591906113b6565b5f60405180830381865afa1580156103bf573d5f5f3e3d5ffd5b505050506040513d5f823e3d601f19601f820116820180604052508101906103e79190611664565b90505f5f5f90505b825181101561044f578383828151811061040c5761040b6116ab565b5b60200260200101515f0151036104425782818151811061042f5761042e6116ab565b5b602002602001015160200151915061044f565b80806001019150506103ef565b505f73ffffffffffffffffffffffffffffffffffffffff168173ffffffffffffffffffffffffffffffffffffffff16036104be576040517f08c379a00000000000000000000000000000000000000000000000000000000081526004016104b590611722565b60405180910390fd5b8073ffffffffffffffffffffffffffffffffffffffff163373ffffffffffffffffffffffffffffffffffffffff161461052c576040517f08c379a0000000000000000000000000000000000000000000000000000000008152600401610523906117b0565b60405180910390fd5b5f7f000000000000000000000000000000000000000000000000000000000000000073ffffffffffffffffffffffffffffffffffffffff1663bc9a310e866040518263ffffffff1660e01b815260040161058691906113b6565b608060405180830381865afa1580156105a1573d5f5f3e3d5ffd5b505050506040513d601f19601f820116820180604052508101906105c591906117f1565b50925050506040518061010001604052808581526020018373ffffffffffffffffffffffffffffffffffffffff1681526020018273ffffffffffffffffffffffffffffffffffffffff1681526020013481526020015f81526020015f151581526020015f151581526020015f15158152505f5f8781526020019081526020015f205f820151815f01556020820151816001015f6101000a81548173ffffffffffffffffffffffffffffffffffffffff021916908373ffffffffffffffffffffffffffffffffffffffff1602179055506040820151816002015f6101000a81548173ffffffffffffffffffffffffffffffffffffffff021916908373ffffffffffffffffffffffffffffffffffffffff160217905550606082015181600301556080820151816004015560a0820151816005015f6101000a81548160ff02191690831515021790555060c08201518160050160016101000a81548160ff02191690831515021790555060e08201518160050160026101000a81548160ff021916908315150217905550905050847f6018521c6389f9d0b17d331252765ed76e2df88da3fc2cd7354cc463aaffaec26002604051610781919061189b565b60405180910390a25050505050565b5f5f5f8381526020019081526020015f209050806005015f9054906101000a900460ff166107f3576040517f08c379a00000000000000000000000000000000000000000000000000000000081526004016107ea906118fe565b60405180910390fd5b8060050160019054906101000a900460ff1615610845576040517f08c379a000000000000000000000000000000000000000000000000000000000815260040161083c90611966565b60405180910390fd5b806002015f9054906101000a900473ffffffffffffffffffffffffffffffffffffffff1673ffffffffffffffffffffffffffffffffffffffff163373ffffffffffffffffffffffffffffffffffffffff16146108d6576040517f08c379a00000000000000000000000000000000000000000000000000000000081526004016108cd906119f4565b60405180910390fd5b5f3411610918576040517f08c379a000000000000000000000000000000000000000000000000000000000815260040161090f90611a82565b60405180910390fd5b60018160050160016101000a81548160ff0219169083151502179055503481600401819055507f000000000000000000000000000000000000000000000000000000000000000073ffffffffffffffffffffffffffffffffffffffff16633a1b3d318360046040518363ffffffff1660e01b815260040161099a929190611aa0565b5f604051808303815f87803b1580156109b1575f5ffd5b505af11580156109c3573d5f5f3e3d5ffd5b50505050817f90f6a634d0d63fd6ed832e7c38bf6bf5366c05634971fb64803816b70d901b1860046040516109f8919061189b565b60405180910390a25050565b5f5f5f8381526020019081526020015f2090505f816003015411610a5d576040517f08c379a0000000000000000000000000000000000000000000000000000000008152600401610a5490611b11565b60405180910390fd5b806005015f9054906101000a900460ff1615610aae576040517f08c379a0000000000000000000000000000000000000000000000000000000008152600401610aa590611b79565b60405180910390fd5b806002015f9054906101000a900473ffffffffffffffffffffffffffffffffffffffff1673ffffffffffffffffffffffffffffffffffffffff163373ffffffffffffffffffffffffffffffffffffffff1614610b3f576040517f08c379a0000000000000000000000000000000000000000000000000000000008152600401610b36906119f4565b60405180910390fd5b6001816005015f6101000a81548160ff0219169083151502179055505f816002015f9054906101000a900473ffffffffffffffffffffffffffffffffffffffff1673ffffffffffffffffffffffffffffffffffffffff168260030154604051610ba790611bc4565b5f6040518083038185875af1925050503d805f8114610be1576040519150601f19603f3d011682016040523d82523d5f602084013e610be6565b606091505b5050905080610c2a576040517f08c379a0000000000000000000000000000000000000000000000000000000008152600401610c2190611c48565b60405180910390fd5b7f000000000000000000000000000000000000000000000000000000000000000073ffffffffffffffffffffffffffffffffffffffff16633a1b3d318460036040518363ffffffff1660e01b8152600401610c86929190611aa0565b5f604051808303815f87803b158015610c9d575f5ffd5b505af1158015610caf573d5f5f3e3d5ffd5b50505050827fd681050413799c983371668f1d92624842ca621e74cd8364af7b48257c7af28a6003604051610ce4919061189b565b60405180910390a2505050565b5f5f5f8381526020019081526020015f2090508060050160019054906101000a900460ff16610d55576040517f08c379a0000000000000000000000000000000000000000000000000000000008152600401610d4c90611cb0565b60405180910390fd5b8060050160029054906101000a900460ff1615610da7576040517f08c379a0000000000000000000000000000000000000000000000000000000008152600401610d9e90611d18565b60405180910390fd5b5f8160040154905060018260050160026101000a81548160ff0219169083151502179055505f826001015f9054906101000a900473ffffffffffffffffffffffffffffffffffffffff1673ffffffffffffffffffffffffffffffffffffffff1682604051610e1490611bc4565b5f6040518083038185875af1925050503d805f8114610e4e576040519150601f19603f3d011682016040523d82523d5f602084013e610e53565b606091505b5050905080610e97576040517f08c379a0000000000000000000000000000000000000000000000000000000008152600401610e8e90611da6565b60405180910390fd5b7f000000000000000000000000000000000000000000000000000000000000000073ffffffffffffffffffffffffffffffffffffffff16633a1b3d318560056040518363ffffffff1660e01b8152600401610ef3929190611aa0565b5f604051808303815f87803b158015610f0a575f5ffd5b505af1158015610f1c573d5f5f3e3d5ffd5b50505050837f9950bb80b953dd5004974715f01f6d3be880331b3dadf3d15cfadf2ab9078c1b6005604051610f51919061189b565b60405180910390a250505050565b5f5f5f5f5f5f5f5f5f5f5f8b81526020019081526020015f209050805f0154816001015f9054906101000a900473ffffffffffffffffffffffffffffffffffffffff16826002015f9054906101000a900473ffffffffffffffffffffffffffffffffffffffff1683600301548460040154856005015f9054906101000a900460ff168660050160019054906101000a900460ff168760050160029054906101000a900460ff169850985098509850985098509850985050919395975091939597565b7f000000000000000000000000000000000000000000000000000000000000000081565b5f73ffffffffffffffffffffffffffffffffffffffff82169050919050565b5f819050919050565b5f61108761108261107d84611045565b611064565b611045565b9050919050565b5f6110988261106d565b9050919050565b5f6110a98261108e565b9050919050565b6110b98161109f565b82525050565b5f6020820190506110d25f8301846110b0565b92915050565b5f604051905090565b5f5ffd5b5f5ffd5b5f819050919050565b6110fb816110e9565b8114611105575f5ffd5b50565b5f81359050611116816110f2565b92915050565b5f5f60408385031215611132576111316110e1565b5b5f61113f85828601611108565b925050602061115085828601611108565b9150509250929050565b5f6020828403121561116f5761116e6110e1565b5b5f61117c84828501611108565b91505092915050565b61118e816110e9565b82525050565b5f61119e82611045565b9050919050565b6111ae81611194565b82525050565b5f8115159050919050565b6111c8816111b4565b82525050565b5f610100820190506111e25f83018b611185565b6111ef602083018a6111a5565b6111fc60408301896111a5565b6112096060830188611185565b6112166080830187611185565b61122360a08301866111bf565b61123060c08301856111bf565b61123d60e08301846111bf565b9998505050505050505050565b5f6112548261108e565b9050919050565b6112648161124a565b82525050565b5f60208201905061127d5f83018461125b565b92915050565b5f82825260208201905092915050565b7f457363726f773a206d757374206c6f636b20736f6d65204554480000000000005f82015250565b5f6112c7601a83611283565b91506112d282611293565b602082019050919050565b5f6020820190508181035f8301526112f4816112bb565b9050919050565b7f457363726f773a2066756e647320616c7265616479206c6f636b656420666f725f8201527f207468697320696e766f69636500000000000000000000000000000000000000602082015250565b5f611355602d83611283565b9150611360826112fb565b604082019050919050565b5f6020820190508181035f83015261138281611349565b9050919050565b7f4e487b71000000000000000000000000000000000000000000000000000000005f52602160045260245ffd5b5f6020820190506113c95f830184611185565b92915050565b600381106113db575f5ffd5b50565b5f815190506113ec816113cf565b92915050565b5f60208284031215611407576114066110e1565b5b5f611414848285016113de565b91505092915050565b7f457363726f773a206f66666572206973206e6f742061636365707465640000005f82015250565b5f611451601d83611283565b915061145c8261141d565b602082019050919050565b5f6020820190508181035f83015261147e81611445565b9050919050565b5f5ffd5b5f601f19601f8301169050919050565b7f4e487b71000000000000000000000000000000000000000000000000000000005f52604160045260245ffd5b6114cf82611489565b810181811067ffffffffffffffff821117156114ee576114ed611499565b5b80604052505050565b5f6115006110d8565b905061150c82826114c6565b919050565b5f67ffffffffffffffff82111561152b5761152a611499565b5b602082029050602081019050919050565b5f5ffd5b5f5ffd5b5f81519050611552816110f2565b92915050565b61156181611194565b811461156b575f5ffd5b50565b5f8151905061157c81611558565b92915050565b5f6040828403121561159757611596611540565b5b6115a160406114f7565b90505f6115b084828501611544565b5f8301525060206115c38482850161156e565b60208301525092915050565b5f6115e16115dc84611511565b6114f7565b905080838252602082019050604084028301858111156116045761160361153c565b5b835b8181101561162d57806116198882611582565b845260208401935050604081019050611606565b5050509392505050565b5f82601f83011261164b5761164a611485565b5b815161165b8482602086016115cf565b91505092915050565b5f60208284031215611679576116786110e1565b5b5f82015167ffffffffffffffff811115611696576116956110e5565b5b6116a284828501611637565b91505092915050565b7f4e487b71000000000000000000000000000000000000000000000000000000005f52603260045260245ffd5b7f457363726f773a206f66666572206e6f7420666f756e640000000000000000005f82015250565b5f61170c601783611283565b9150611717826116d8565b602082019050919050565b5f6020820190508181035f83015261173981611700565b9050919050565b7f457363726f773a2063616c6c6572206d75737420626520746865206c656e64655f8201527f7200000000000000000000000000000000000000000000000000000000000000602082015250565b5f61179a602183611283565b91506117a582611740565b604082019050919050565b5f6020820190508181035f8301526117c78161178e565b9050919050565b600681106117da575f5ffd5b50565b5f815190506117eb816117ce565b92915050565b5f5f5f5f60808587031215611809576118086110e1565b5b5f61181687828801611544565b9450506020611827878288016117dd565b93505060406118388782880161156e565b925050606061184987828801611544565b91505092959194509250565b6006811061186657611865611389565b5b50565b5f81905061187682611855565b919050565b5f61188582611869565b9050919050565b6118958161187b565b82525050565b5f6020820190506118ae5f83018461188c565b92915050565b7f457363726f773a2066756e6473206e6f742072656c65617365642079657400005f82015250565b5f6118e8601e83611283565b91506118f3826118b4565b602082019050919050565b5f6020820190508181035f830152611915816118dc565b9050919050565b7f457363726f773a20696e766f69636520616c72656164792072657061696400005f82015250565b5f611950601e83611283565b915061195b8261191c565b602082019050919050565b5f6020820190508181035f83015261197d81611944565b9050919050565b7f457363726f773a2063616c6c6572206d75737420626520746865206d657263685f8201527f616e740000000000000000000000000000000000000000000000000000000000602082015250565b5f6119de602383611283565b91506119e982611984565b604082019050919050565b5f6020820190508181035f830152611a0b816119d2565b9050919050565b7f457363726f773a2072657061796d656e74206d75737420636f6e7461696e20455f8201527f5448000000000000000000000000000000000000000000000000000000000000602082015250565b5f611a6c602283611283565b9150611a7782611a12565b604082019050919050565b5f6020820190508181035f830152611a9981611a60565b9050919050565b5f604082019050611ab35f830185611185565b611ac0602083018461188c565b9392505050565b7f457363726f773a206e6f2066756e6473206c6f636b65640000000000000000005f82015250565b5f611afb601783611283565b9150611b0682611ac7565b602082019050919050565b5f6020820190508181035f830152611b2881611aef565b9050919050565b7f457363726f773a2066756e647320616c72656164792072656c656173656400005f82015250565b5f611b63601e83611283565b9150611b6e82611b2f565b602082019050919050565b5f6020820190508181035f830152611b9081611b57565b9050919050565b5f81905092915050565b50565b5f611baf5f83611b97565b9150611bba82611ba1565b5f82019050919050565b5f611bce82611ba4565b9150819050919050565b7f457363726f773a207472616e7366657220746f206d65726368616e74206661695f8201527f6c65640000000000000000000000000000000000000000000000000000000000602082015250565b5f611c32602383611283565b9150611c3d82611bd8565b604082019050919050565b5f6020820190508181035f830152611c5f81611c26565b9050919050565b7f457363726f773a20696e766f696365206e6f74207265706169642079657400005f82015250565b5f611c9a601e83611283565b9150611ca582611c66565b602082019050919050565b5f6020820190508181035f830152611cc781611c8e565b9050919050565b7f457363726f773a20696e766f69636520616c726561647920736574746c6564005f82015250565b5f611d02601f83611283565b9150611d0d82611cce565b602082019050919050565b5f6020820190508181035f830152611d2f81611cf6565b9050919050565b7f457363726f773a20736574746c656d656e74207472616e7366657220746f206c5f8201527f656e646572206661696c65640000000000000000000000000000000000000000602082015250565b5f611d90602c83611283565b9150611d9b82611d36565b604082019050919050565b5f6020820190508181035f830152611dbd81611d84565b905091905056fea2646970667358221220a6b3a6a51801703275c0e62e8f19620801409ea2ef7f6069f15e049c8492800c64736f6c634300081c0033",
  "linkReferences": {},
  "deployedLinkReferences": {}
}