{
  "_format": "hh-sol-artifact-1",
  "contractName": "InvoiceRegistry",
  "sourceName": "contracts/InvoiceRegistry.sol",
  "abi": [
    {
      "inputs": [],
      "stateMutability": "nonpayable",
      "type": "constructor"
    },
    {
      "inputs": [
        {
          "internalType": "uint8",
          "name": "got",
          "type": "uint8"
        },
        {
          "internalType": "uint8",
          "name": "expected",
          "type": "uint8"
        }
      ],
      "name": "InvalidEncryptedInput",
      "type": "error"
    },
    {
      "anonymous": false,
      "inputs": [
        {
          "indexed": true,
          "internalType": "uint256",
          "name": "invoiceId",
          "type": "uint256"
        },
        {
          "indexed": false,
          "internalType": "enum InvoiceRegistry.InvoiceStatus",
          "name": "status",
          "type": "uint8"
        },
        {
          "indexed": true,
          "internalType": "address",
          "name": "merchant",
          "type": "address"
        }
      ],
      "name": "InvoiceCreated",
      "type": "event"
    },
    {
      "anonymous": false,
      "inputs": [
        {
          "indexed": true,
          "internalType": "uint256",
          "name": "invoiceId",
          "type": "uint256"
        },
        {
          "indexed": false,
          "internalType": "enum InvoiceRegistry.InvoiceStatus",
          "name": "status",
          "type": "uint8"
        }
      ],
      "name": "InvoiceListed",
      "type": "event"
    },
    {
      "inputs": [
        {
          "components": [
            {
              "internalType": "uint256",
              "name": "ctHash",
              "type": "uint256"
            },
            {
              "internalType": "uint8",
              "name": "securityZone",
              "type": "uint8"
            },
            {
              "internalType": "uint8",
              "name": "utype",
              "type": "uint8"
            },
            {
              "internalType": "bytes",
              "name": "signature",
              "type": "bytes"
            }
          ],
          "internalType": "struct InEuint64",
          "name": "encryptedAmount",
          "type": "tuple"
        },
        {
          "components": [
            {
              "internalType": "uint256",
              "name": "ctHash",
              "type": "uint256"
            },
            {
              "internalType": "uint8",
              "name": "securityZone",
              "type": "uint8"
            },
            {
              "internalType": "uint8",
              "name": "utype",
              "type": "uint8"
            },
            {
              "internalType": "bytes",
              "name": "signature",
              "type": "bytes"
            }
          ],
          "internalType": "struct InEaddress",
          "name": "encryptedBuyer",
          "type": "tuple"
        },
        {
          "components": [
            {
              "internalType": "uint256",
              "name": "ctHash",
              "type": "uint256"
            },
            {
              "internalType": "uint8",
              "name": "securityZone",
              "type": "uint8"
            },
            {
              "internalType": "uint8",
              "name": "utype",
              "type": "uint8"
            },
            {
              "internalType": "bytes",
              "name": "signature",
              "type": "bytes"
            }
          ],
          "internalType": "struct InEuint32",
          "name": "encryptedDueDate",
          "type": "tuple"
        }
      ],
      "name": "createInvoice",
      "outputs": [
        {
          "internalType": "uint256",
          "name": "",
          "type": "uint256"
        }
      ],
      "stateMutability": "nonpayable",
      "type": "function"
    },
    {
      "inputs": [],
      "name": "escrow",
      "outputs": [
        {
          "internalType": "address",
          "name": "",
          "type": "address"
        }
      ],
      "stateMutability": "view",
      "type": "function"
    },
    {
      "inputs": [
        {
          "internalType": "uint256",
          "name": "invoiceId",
          "type": "uint256"
        }
      ],
      "name": "getEncryptedInvoiceData",
      "outputs": [
        {
          "internalType": "euint64",
          "name": "amount",
          "type": "bytes32"
        },
        {
          "internalType": "eaddress",
          "name": "buyer",
          "type": "bytes32"
        },
        {
          "internalType": "euint32",
          "name": "dueDate",
          "type": "bytes32"
        }
      ],
      "stateMutability": "view",
      "type": "function"
    },
    {
      "inputs": [
        {
          "internalType": "uint256",
          "name": "invoiceId",
          "type": "uint256"
        }
      ],
      "name": "getInvoiceMetadata",
      "outputs": [
        {
          "internalType": "uint256",
          "name": "id",
          "type": "uint256"
        },
        {
          "internalType": "enum InvoiceRegistry.InvoiceStatus",
          "name": "status",
          "type": "uint8"
        },
        {
          "internalType": "address",
          "name": "merchant",
          "type": "address"
        },
        {
          "internalType": "uint256",
          "name": "listedAt",
          "type": "uint256"
        }
      ],
      "stateMutability": "view",
      "type": "function"
    },
    {
      "inputs": [
        {
          "internalType": "uint256",
          "name": "invoiceId",
          "type": "uint256"
        }
      ],
      "name": "listOnMarketplace",
      "outputs": [],
      "stateMutability": "nonpayable",
      "type": "function"
    },
    {
      "inputs": [],
      "name": "offerMarket",
      "outputs": [
        {
          "internalType": "address",
          "name": "",
          "type": "address"
        }
      ],
      "stateMutability": "view",
      "type": "function"
    },
    {
      "inputs": [],
      "name": "owner",
      "outputs": [
        {
          "internalType": "address",
          "name": "",
          "type": "address"
        }
      ],
      "stateMutability": "view",
      "type": "function"
    },
    {
      "inputs": [
        {
          "internalType": "address",
          "name": "_escrow",
          "type": "address"
        }
      ],
      "name": "setEscrow",
      "outputs": [],
      "stateMutability": "nonpayable",
      "type": "function"
    },
    {
      "inputs": [
        {
          "internalType": "address",
          "name": "_offerMarket",
          "type": "address"
        }
      ],
      "name": "setOfferMarket",
      "outputs": [],
      "stateMutability": "nonpayable",
      "type": "function"
    },
    {
      "inputs": [
        {
          "internalType": "uint256",
          "name": "invoiceId",
          "type": "uint256"
        },
        {
          "internalType": "enum InvoiceRegistry.InvoiceStatus",
          "name": "newStatus",
          "type": "uint8"
        }
      ],
      "name": "updateStatus",
      "outputs": [],
      "stateMutability": "nonpayable",
      "type": "function"
    }
  ],
  "bytecode": "0x6080604052348015600e575f5ffd5b50335f5f6101000a81548173ffffffffffffffffffffffffffffffffffffffff021916908373ffffffffffffffffffffffffffffffffffffffff1602179055506001600381905550611adb806100635f395ff3fe608060405234801561000f575f5ffd5b506004361061009c575f3560e01c80639163a864116100645780639163a86414610144578063b65c4d8814610176578063bc9a310e14610192578063c10c3546146101c5578063e2fdcc17146101e15761009c565b806319a2c2ba146100a0578063331efe61146100be5780633a1b3d31146100ee5780635f8c8c281461010a5780638da5cb5b14610126575b5f5ffd5b6100a86101ff565b6040516100b59190610e9d565b60405180910390f35b6100d860048036038101906100d39190610f25565b610224565b6040516100e59190610fe1565b60405180910390f35b61010860048036038101906101039190611047565b61040a565b005b610124600480360381019061011f91906110af565b610584565b005b61012e610655565b60405161013b9190610e9d565b60405180910390f35b61015e600480360381019061015991906110da565b610679565b60405161016d9392919061114c565b60405180910390f35b610190600480360381019061018b91906110da565b6106f2565b005b6101ac60048036038101906101a791906110da565b6108e7565b6040516101bc94939291906111f4565b60405180910390f35b6101df60048036038101906101da91906110af565b610993565b005b6101e9610a64565b6040516101f69190610e9d565b60405180910390f35b60015f9054906101000a900473ffffffffffffffffffffffffffffffffffffffff1681565b5f5f60035f81548092919061023890611264565b9190505590505f6102518661024c906114b6565b610a89565b90505f6102668661026190611559565b610ab1565b90505f61027b86610276906115fc565b610ad9565b905061028683610b01565b61028f82610b82565b61029881610c03565b6040518060e001604052808581526020018481526020018381526020018281526020015f60058111156102ce576102cd611181565b5b81526020013373ffffffffffffffffffffffffffffffffffffffff1681526020015f81525060045f8681526020019081526020015f205f820151815f01556020820151816001015560408201518160020155606082015181600301556080820151816004015f6101000a81548160ff0219169083600581111561035457610353611181565b5b021790555060a08201518160040160016101000a81548173ffffffffffffffffffffffffffffffffffffffff021916908373ffffffffffffffffffffffffffffffffffffffff16021790555060c082015181600501559050503373ffffffffffffffffffffffffffffffffffffffff16847ff12aa117488501e67dbe837de20e29ae71f9586f91d70bcf9f6cde54882de41e5f6040516103f4919061160e565b60405180910390a3839450505050509392505050565b60015f9054906101000a900473ffffffffffffffffffffffffffffffffffffffff1673ffffffffffffffffffffffffffffffffffffffff163373ffffffffffffffffffffffffffffffffffffffff1614806104b1575060025f9054906101000a900473ffffffffffffffffffffffffffffffffffffffff1673ffffffffffffffffffffffffffffffffffffffff163373ffffffffffffffffffffffffffffffffffffffff16145b6104f0576040517f08c379a00000000000000000000000000000000000000000000000000000000081526004016104e7906116a7565b60405180910390fd5b5f60045f8481526020019081526020015f205f015403610545576040517f08c379a000000000000000000000000000000000000000000000000000000000815260040161053c90611735565b60405180910390fd5b8060045f8481526020019081526020015f206004015f6101000a81548160ff0219169083600581111561057b5761057a611181565b5b02179055505050565b5f5f9054906101000a900473ffffffffffffffffffffffffffffffffffffffff1673ffffffffffffffffffffffffffffffffffffffff163373ffffffffffffffffffffffffffffffffffffffff1614610612576040517f08c379a0000000000000000000000000000000000000000000000000000000008152600401610609906117c3565b60405180910390fd5b8060015f6101000a81548173ffffffffffffffffffffffffffffffffffffffff021916908373ffffffffffffffffffffffffffffffffffffffff16021790555050565b5f5f9054906101000a900473ffffffffffffffffffffffffffffffffffffffff1681565b5f5f5f5f60045f8681526020019081526020015f2090505f815f0154036106d5576040517f08c379a00000000000000000000000000000000000000000000000000000000081526004016106cc90611735565b60405180910390fd5b806001015481600201548260030154935093509350509193909250565b805f60045f8381526020019081526020015f205f015403610748576040517f08c379a000000000000000000000000000000000000000000000000000000000815260040161073f90611735565b60405180910390fd5b3373ffffffffffffffffffffffffffffffffffffffff1660045f8381526020019081526020015f2060040160019054906101000a900473ffffffffffffffffffffffffffffffffffffffff1673ffffffffffffffffffffffffffffffffffffffff16146107ea576040517f08c379a00000000000000000000000000000000000000000000000000000000081526004016107e190611851565b60405180910390fd5b5f60045f8481526020019081526020015f2090505f600581111561081157610810611181565b5b816004015f9054906101000a900460ff16600581111561083457610833611181565b5b14610874576040517f08c379a000000000000000000000000000000000000000000000000000000000815260040161086b906118df565b60405180910390fd5b6001816004015f6101000a81548160ff0219169083600581111561089b5761089a611181565b5b0217905550428160050181905550827fca8b7f4ff77c2546c50dd5243a18e182eb7b31289dccbcc86161d93dbfe4b74760016040516108da919061160e565b60405180910390a2505050565b5f5f5f5f5f60045f8781526020019081526020015f2090505f815f015403610944576040517f08c379a000000000000000000000000000000000000000000000000000000000815260040161093b90611735565b60405180910390fd5b805f0154816004015f9054906101000a900460ff168260040160019054906101000a900473ffffffffffffffffffffffffffffffffffffffff1683600501549450945094509450509193509193565b5f5f9054906101000a900473ffffffffffffffffffffffffffffffffffffffff1673ffffffffffffffffffffffffffffffffffffffff163373ffffffffffffffffffffffffffffffffffffffff1614610a21576040517f08c379a0000000000000000000000000000000000000000000000000000000008152600401610a18906117c3565b60405180910390fd5b8060025f6101000a81548173ffffffffffffffffffffffffffffffffffffffff021916908373ffffffffffffffffffffffffffffffffffffffff16021790555050565b60025f9054906101000a900473ffffffffffffffffffffffffffffffffffffffff1681565b5f610a9982604001516005610c84565b610aaa610aa583610cd4565b610d16565b9050919050565b5f610ac182604001516007610c84565b610ad2610acd83610daf565b610d16565b9050919050565b5f610ae982604001516004610c84565b610afa610af583610df1565b610d16565b9050919050565b73ea30c4b8b44078bbf8a6ef5b9f1ec1626c7848d973ffffffffffffffffffffffffffffffffffffffff166365d0509c825f1c336040518363ffffffff1660e01b8152600401610b529291906118fd565b5f604051808303815f87803b158015610b69575f5ffd5b505af1158015610b7b573d5f5f3e3d5ffd5b5050505050565b73ea30c4b8b44078bbf8a6ef5b9f1ec1626c7848d973ffffffffffffffffffffffffffffffffffffffff166365d0509c825f1c336040518363ffffffff1660e01b8152600401610bd39291906118fd565b5f604051808303815f87803b158015610bea575f5ffd5b505af1158015610bfc573d5f5f3e3d5ffd5b5050505050565b73ea30c4b8b44078bbf8a6ef5b9f1ec1626c7848d973ffffffffffffffffffffffffffffffffffffffff166365d0509c825f1c336040518363ffffffff1660e01b8152600401610c549291906118fd565b5f604051808303815f87803b158015610c6b575f5ffd5b505af1158015610c7d573d5f5f3e3d5ffd5b5050505050565b8060ff168260ff1614610cd05781816040517f67cf3071000000000000000000000000000000000000000000000000000000008152600401610cc7929190611933565b60405180910390fd5b5050565b610cdc610e33565b6040518060800160405280835f01518152602001836020015160ff168152602001600560ff16815260200183606001518152509050919050565b5f73ea30c4b8b44078bbf8a6ef5b9f1ec1626c7848d973ffffffffffffffffffffffffffffffffffffffff166327f9c76283336040518363ffffffff1660e01b8152600401610d66929190611a38565b6020604051808303815f875af1158015610d82573d5f5f3e3d5ffd5b505050506040513d601f19601f82011682018060405250810190610da69190611a7a565b5f1b9050919050565b610db7610e33565b6040518060800160405280835f01518152602001836020015160ff168152602001600760ff16815260200183606001518152509050919050565b610df9610e33565b6040518060800160405280835f01518152602001836020015160ff168152602001600460ff16815260200183606001518152509050919050565b60405180608001604052805f81526020015f60ff1681526020015f60ff168152602001606081525090565b5f73ffffffffffffffffffffffffffffffffffffffff82169050919050565b5f610e8782610e5e565b9050919050565b610e9781610e7d565b82525050565b5f602082019050610eb05f830184610e8e565b92915050565b5f604051905090565b5f5ffd5b5f5ffd5b5f5ffd5b5f60808284031215610ee057610edf610ec7565b5b81905092915050565b5f60808284031215610efe57610efd610ec7565b5b81905092915050565b5f60808284031215610f1c57610f1b610ec7565b5b81905092915050565b5f5f5f60608486031215610f3c57610f3b610ebf565b5b5f84013567ffffffffffffffff811115610f5957610f58610ec3565b5b610f6586828701610ecb565b935050602084013567ffffffffffffffff811115610f8657610f85610ec3565b5b610f9286828701610ee9565b925050604084013567ffffffffffffffff811115610fb357610fb2610ec3565b5b610fbf86828701610f07565b9150509250925092565b5f819050919050565b610fdb81610fc9565b82525050565b5f602082019050610ff45f830184610fd2565b92915050565b61100381610fc9565b811461100d575f5ffd5b50565b5f8135905061101e81610ffa565b92915050565b60068110611030575f5ffd5b50565b5f8135905061104181611024565b92915050565b5f5f6040838503121561105d5761105c610ebf565b5b5f61106a85828601611010565b925050602061107b85828601611033565b9150509250929050565b61108e81610e7d565b8114611098575f5ffd5b50565b5f813590506110a981611085565b92915050565b5f602082840312156110c4576110c3610ebf565b5b5f6110d18482850161109b565b91505092915050565b5f602082840312156110ef576110ee610ebf565b5b5f6110fc84828501611010565b91505092915050565b5f819050919050565b5f61111882611105565b9050919050565b6111288161110e565b82525050565b6111378161110e565b82525050565b6111468161110e565b82525050565b5f60608201905061115f5f83018661111f565b61116c602083018561112e565b611179604083018461113d565b949350505050565b7f4e487b71000000000000000000000000000000000000000000000000000000005f52602160045260245ffd5b600681106111bf576111be611181565b5b50565b5f8190506111cf826111ae565b919050565b5f6111de826111c2565b9050919050565b6111ee816111d4565b82525050565b5f6080820190506112075f830187610fd2565b61121460208301866111e5565b6112216040830185610e8e565b61122e6060830184610fd2565b95945050505050565b7f4e487b71000000000000000000000000000000000000000000000000000000005f52601160045260245ffd5b5f61126e82610fc9565b91507fffffffffffffffffffffffffffffffffffffffffffffffffffffffffffffffff82036112a05761129f611237565b5b600182019050919050565b5f5ffd5b5f601f19601f8301169050919050565b7f4e487b71000000000000000000000000000000000000000000000000000000005f52604160045260245ffd5b6112f5826112af565b810181811067ffffffffffffffff82111715611314576113136112bf565b5b80604052505050565b5f611326610eb6565b905061133282826112ec565b919050565b5f5ffd5b5f60ff82169050919050565b6113508161133b565b811461135a575f5ffd5b50565b5f8135905061136b81611347565b92915050565b5f5ffd5b5f5ffd5b5f67ffffffffffffffff821115611393576113926112bf565b5b61139c826112af565b9050602081019050919050565b828183375f83830152505050565b5f6113c96113c484611379565b61131d565b9050828152602081018484840111156113e5576113e4611375565b5b6113f08482856113a9565b509392505050565b5f82601f83011261140c5761140b611371565b5b813561141c8482602086016113b7565b91505092915050565b5f6080828403121561143a576114396112ab565b5b611444608061131d565b90505f61145384828501611010565b5f8301525060206114668482850161135d565b602083015250604061147a8482850161135d565b604083015250606082013567ffffffffffffffff81111561149e5761149d611337565b5b6114aa848285016113f8565b60608301525092915050565b5f6114c13683611425565b9050919050565b5f608082840312156114dd576114dc6112ab565b5b6114e7608061131d565b90505f6114f684828501611010565b5f8301525060206115098482850161135d565b602083015250604061151d8482850161135d565b604083015250606082013567ffffffffffffffff81111561154157611540611337565b5b61154d848285016113f8565b60608301525092915050565b5f61156436836114c8565b9050919050565b5f608082840312156115805761157f6112ab565b5b61158a608061131d565b90505f61159984828501611010565b5f8301525060206115ac8482850161135d565b60208301525060406115c08482850161135d565b604083015250606082013567ffffffffffffffff8111156115e4576115e3611337565b5b6115f0848285016113f8565b60608301525092915050565b5f611607368361156b565b9050919050565b5f6020820190506116215f8301846111e5565b92915050565b5f82825260208201905092915050565b7f496e766f69636552656769737472793a2063616c6c6572206973206e6f7420615f8201527f7574686f72697a65640000000000000000000000000000000000000000000000602082015250565b5f611691602983611627565b915061169c82611637565b604082019050919050565b5f6020820190508181035f8301526116be81611685565b9050919050565b7f496e766f69636552656769737472793a20696e766f69636520646f6573206e6f5f8201527f7420657869737400000000000000000000000000000000000000000000000000602082015250565b5f61171f602783611627565b915061172a826116c5565b604082019050919050565b5f6020820190508181035f83015261174c81611713565b9050919050565b7f496e766f69636552656769737472793a2063616c6c6572206973206e6f7420745f8201527f6865206f776e6572000000000000000000000000000000000000000000000000602082015250565b5f6117ad602883611627565b91506117b882611753565b604082019050919050565b5f6020820190508181035f8301526117da816117a1565b9050919050565b7f496e766f69636552656769737472793a2063616c6c6572206973206e6f7420745f8201527f6865206d65726368616e74000000000000000000000000000000000000000000602082015250565b5f61183b602b83611627565b9150611846826117e1565b604082019050919050565b5f6020820190508181035f8301526118688161182f565b9050919050565b7f496e766f69636552656769737472793a20696e766f696365206d7573742062655f8201527f20696e2043726561746564207374617465000000000000000000000000000000602082015250565b5f6118c9603183611627565b91506118d48261186f565b604082019050919050565b5f6020820190508181035f8301526118f6816118bd565b9050919050565b5f6040820190506119105f830185610fd2565b61191d6020830184610e8e565b9392505050565b61192d8161133b565b82525050565b5f6040820190506119465f830185611924565b6119536020830184611924565b9392505050565b61196381610fc9565b82525050565b6119728161133b565b82525050565b5f81519050919050565b5f82825260208201905092915050565b8281835e5f83830152505050565b5f6119aa82611978565b6119b48185611982565b93506119c4818560208601611992565b6119cd816112af565b840191505092915050565b5f608083015f8301516119ed5f86018261195a565b506020830151611a006020860182611969565b506040830151611a136040860182611969565b5060608301518482036060860152611a2b82826119a0565b9150508091505092915050565b5f6040820190508181035f830152611a5081856119d8565b9050611a5f6020830184610e8e565b9392505050565b5f81519050611a7481610ffa565b92915050565b5f60208284031215611a8f57611a8e610ebf565b5b5f611a9c84828501611a66565b9150509291505056fea2646970667358221220dc4677e97836c77f077f05639f3684d30fed5e17681e3de4be63802ca042d7ea64736f6c634300081c0033",
  "linkReferences": {},
  "deployedLinkReferences": {}
}