{
  "_format": "hh-sol-artifact-1",
  "contractName": "OfferMarket",
  "sourceName": "contracts/OfferMarket.sol",
  "abi": [
    {
      "inputs": [
        {
          "internalType": "address",
          "name": "_invoiceRegistry",
          "type": "address"
        }
      ],
      "stateMutability": "nonpayable",
      "type": "constructor"
    },
    {
      "inputs": [
        {
          "internalType": "uint8",
          "name": "got",
          "type": "uint8"
        },
        {
          "internalType": "uint8",
          "name": "expected",
          "type": "uint8"
        }
      ],
      "name": "InvalidEncryptedInput",
      "type": "error"
    },
    {
      "inputs": [
        {
          "internalType": "int32",
          "name": "value",
          "type": "int32"
        }
      ],
      "name": "SecurityZoneOutOfBounds",
      "type": "error"
    },
    {
      "anonymous": false,
      "inputs": [
        {
          "indexed": true,
          "internalType": "uint256",
          "name": "offerId",
          "type": "uint256"
        },
        {
          "indexed": true,
          "internalType": "uint256",
          "name": "invoiceId",
          "type": "uint256"
        }
      ],
      "name": "OfferAccepted",
      "type": "event"
    },
    {
      "anonymous": false,
      "inputs": [
        {
          "indexed": true,
          "internalType": "uint256",
          "name": "offerId",
          "type": "uint256"
        },
        {
          "indexed": true,
          "internalType": "uint256",
          "name": "invoiceId",
          "type": "uint256"
        },
        {
          "indexed": true,
          "internalType": "address",
          "name": "lender",
          "type": "address"
        }
      ],
      "name": "OfferSubmitted",
      "type": "event"
    },
    {
      "inputs": [
        {
          "internalType": "uint256",
          "name": "invoiceId",
          "type": "uint256"
        },
        {
          "internalType": "uint256",
          "name": "offerId",
          "type": "uint256"
        }
      ],
      "name": "acceptOffer",
      "outputs": [],
      "stateMutability": "nonpayable",
      "type": "function"
    },
    {
      "inputs": [
        {
          "internalType": "uint256",
          "name": "invoiceId",
          "type": "uint256"
        }
      ],
      "name": "compareOffers",
      "outputs": [
        {
          "internalType": "euint64",
          "name": "",
          "type": "bytes32"
        }
      ],
      "stateMutability": "nonpayable",
      "type": "function"
    },
    {
      "inputs": [
        {
          "internalType": "uint256",
          "name": "invoiceId",
          "type": "uint256"
        }
      ],
      "name": "getBestOffer",
      "outputs": [
        {
          "internalType": "euint64",
          "name": "",
          "type": "bytes32"
        }
      ],
      "stateMutability": "view",
      "type": "function"
    },
    {
      "inputs": [
        {
          "internalType": "uint256",
          "name": "offerId",
          "type": "uint256"
        }
      ],
      "name": "getOfferStatus",
      "outputs": [
        {
          "internalType": "enum OfferMarket.OfferStatus",
          "name": "",
          "type": "uint8"
        }
      ],
      "stateMutability": "view",
      "type": "function"
    },
    {
      "inputs": [
        {
          "internalType": "uint256",
          "name": "invoiceId",
          "type": "uint256"
        }
      ],
      "name": "getOffersForInvoice",
      "outputs": [
        {
          "components": [
            {
              "internalType": "uint256",
              "name": "offerId",
              "type": "uint256"
            },
            {
              "internalType": "address",
              "name": "lender",
              "type": "address"
            }
          ],
          "internalType": "struct OfferMarket.OfferMetadata[]",
          "name": "",
          "type": "tuple[]"
        }
      ],
      "stateMutability": "view",
      "type": "function"
    },
    {
      "inputs": [],
      "name": "invoiceRegistry",
      "outputs": [
        {
          "internalType": "contract InvoiceRegistry",
          "name": "",
          "type": "address"
        }
      ],
      "stateMutability": "view",
      "type": "function"
    },
    {
      "inputs": [
        {
          "internalType": "uint256",
          "name": "invoiceId",
          "type": "uint256"
        },
        {
          "components": [
            {
              "internalType": "uint256",
              "name": "ctHash",
              "type": "uint256"
            },
            {
              "internalType": "uint8",
              "name": "securityZone",
              "type": "uint8"
            },
            {
              "internalType": "uint8",
              "name": "utype",
              "type": "uint8"
            },
            {
              "internalType": "bytes",
              "name": "signature",
              "type": "bytes"
            }
          ],
          "internalType": "struct InEuint64",
          "name": "encryptedRate",
          "type": "tuple"
        },
        {
          "components": [
            {
              "internalType": "uint256",
              "name": "ctHash",
              "type": "uint256"
            },
            {
              "internalType": "uint8",
              "name": "securityZone",
              "type": "uint8"
            },
            {
              "internalType": "uint8",
              "name": "utype",
              "type": "uint8"
            },
            {
              "internalType": "bytes",
              "name": "signature",
              "type": "bytes"
            }
          ],
          "internalType": "struct InEuint64",
          "name": "encryptedOfferAmount",
          "type": "tuple"
        }
      ],
      "name": "submitOffer",
      "outputs": [
        {
          "internalType": "uint256",
          "name": "",
          "type": "uint256"
        }
      ],
      "stateMutability": "nonpayable",
      "type": "function"
    }
  ],
  "bytecode": "0x60a060405234801561000f575f5ffd5b506040516125233803806125238339818101604052810190610031919061013e565b5f73ffffffffffffffffffffffffffffffffffffffff168173ffffffffffffffffffffffffffffffffffffffff160361009f576040517f08c379a0000000000000000000000000000000000000000000000000000000008152600401610096906101e9565b60405180910390fd5b8073ffffffffffffffffffffffffffffffffffffffff1660808173ffffffffffffffffffffffffffffffffffffffff168152505060015f8190555050610207565b5f5ffd5b5f73ffffffffffffffffffffffffffffffffffffffff82169050919050565b5f61010d826100e4565b9050919050565b61011d81610103565b8114610127575f5ffd5b50565b5f8151905061013881610114565b92915050565b5f60208284031215610153576101526100e0565b5b5f6101608482850161012a565b91505092915050565b5f82825260208201905092915050565b7f4f666665724d61726b65743a20696e76616c69642072656769737472792061645f8201527f6472657373000000000000000000000000000000000000000000000000000000602082015250565b5f6101d3602583610169565b91506101de82610179565b604082019050919050565b5f6020820190508181035f830152610200816101c7565b9050919050565b6080516122ef6102345f395f81816101c6015281816104670152818161069301526109a001526122ef5ff3fe608060405234801561000f575f5ffd5b506004361061007b575f3560e01c8063c65e3d0211610059578063c65e3d02146100fb578063da6c70e41461012b578063db89aceb14610149578063dc2d98d2146101795761007b565b80635d9152601461007f57806381257bd5146100af578063ade7bdc7146100cb575b5f5ffd5b6100996004803603810190610094919061152c565b6101a9565b6040516100a69190611580565b60405180910390f35b6100c960048036038101906100c49190611599565b6101c3565b005b6100e560048036038101906100e0919061152c565b610523565b6040516100f29190611580565b60405180910390f35b610115600480360381019061011091906115f9565b61068e565b6040516101229190611690565b60405180910390f35b61013361099e565b6040516101409190611723565b60405180910390f35b610163600480360381019061015e919061152c565b6109c2565b6040516101709190611840565b60405180910390f35b610193600480360381019061018e919061152c565b610af8565b6040516101a091906118d3565b60405180910390f35b5f60035f8381526020019081526020015f20549050919050565b5f7f000000000000000000000000000000000000000000000000000000000000000073ffffffffffffffffffffffffffffffffffffffff1663bc9a310e846040518263ffffffff1660e01b815260040161021d9190611690565b608060405180830381865afa158015610238573d5f5f3e3d5ffd5b505050506040513d601f19601f8201168201806040525081019061025c919061194d565b50925050508073ffffffffffffffffffffffffffffffffffffffff163373ffffffffffffffffffffffffffffffffffffffff16146102cf576040517f08c379a00000000000000000000000000000000000000000000000000000000081526004016102c690611a31565b60405180910390fd5b5f60015f8481526020019081526020015f20905083816001015414610329576040517f08c379a000000000000000000000000000000000000000000000000000000000815260040161032090611abf565b60405180910390fd5b5f600281111561033c5761033b611860565b5b8160040160149054906101000a900460ff1660028111156103605761035f611860565b5b146103a0576040517f08c379a000000000000000000000000000000000000000000000000000000000815260040161039790611b4d565b60405180910390fd5b60018160040160146101000a81548160ff021916908360028111156103c8576103c7611860565b5b02179055505f60025f8681526020019081526020015f2090505f5f90505b8180549050811015610464575f82828154811061040657610405611b6b565b5b905f5260205f200154905085811461045657600260015f8381526020019081526020015f2060040160146101000a81548160ff021916908360028111156104505761044f611860565b5b02179055505b5080806001019150506103e6565b507f000000000000000000000000000000000000000000000000000000000000000073ffffffffffffffffffffffffffffffffffffffff16633a1b3d318660026040518363ffffffff1660e01b81526004016104c1929190611bde565b5f604051808303815f87803b1580156104d8575f5ffd5b505af11580156104ea573d5f5f3e3d5ffd5b5050505084847f397f87b3946767b09967764d50032941de13a2606bcb39dfed61d7b1ed0192cc60405160405180910390a35050505050565b5f5f60025f8481526020019081526020015f2090505f81805490501161057e576040517f08c379a000000000000000000000000000000000000000000000000000000000815260040161057590611c75565b60405180910390fd5b5f815f8154811061059257610591611b6b565b5b905f5260205f20015490505f60015f8381526020019081526020015f206002015490505f6105c98367ffffffffffffffff16610b22565b90505f600190505b8480549050811015610662575f8582815481106105f1576105f0611b6b565b5b905f5260205f20015490505f60015f8381526020019081526020015f206002015490505f6106288367ffffffffffffffff16610b22565b90505f6106358388610b34565b9050610642818489610b7d565b965061064f818388610b7d565b95505050505080806001019150506105d1565b5061066c81610bdf565b8060035f8881526020019081526020015f208190555080945050505050919050565b5f5f5f7f000000000000000000000000000000000000000000000000000000000000000073ffffffffffffffffffffffffffffffffffffffff1663bc9a310e876040518263ffffffff1660e01b81526004016106ea9190611690565b608060405180830381865afa158015610705573d5f5f3e3d5ffd5b505050506040513d601f19601f82011682018060405250810190610729919061194d565b5092509250506001600581111561074357610742611860565b5b82600581111561075657610755611860565b5b14610796576040517f08c379a000000000000000000000000000000000000000000000000000000000815260040161078d90611d03565b60405180910390fd5b5f5f5f8154809291906107a890611d4e565b9190505590505f6107c1876107bc90611fa0565b610c60565b90505f6107d6876107d190611fa0565b610c60565b90506107e182610bdf565b6107ea81610bdf565b6107f48285610c88565b6107fe8185610c88565b61080782610d0a565b61081081610d0a565b6040518060c001604052808481526020018a81526020018381526020018281526020013373ffffffffffffffffffffffffffffffffffffffff1681526020015f600281111561086257610861611860565b5b81525060015f8581526020019081526020015f205f820151815f01556020820151816001015560408201518160020155606082015181600301556080820151816004015f6101000a81548173ffffffffffffffffffffffffffffffffffffffff021916908373ffffffffffffffffffffffffffffffffffffffff16021790555060a08201518160040160146101000a81548160ff0219169083600281111561090d5761090c611860565b5b021790555090505060025f8a81526020019081526020015f2083908060018154018082558091505060019003905f5260205f20015f90919091909150553373ffffffffffffffffffffffffffffffffffffffff1689847f60e344e47525731fddb78da0406d35494f63a1e7ebb282981fa22ca34f00168c60405160405180910390a482955050505050509392505050565b7f000000000000000000000000000000000000000000000000000000000000000081565b60605f60025f8481526020019081526020015f2090505f818054905067ffffffffffffffff8111156109f7576109f6611da9565b5b604051908082528060200260200182016040528015610a3057816020015b610a1d61148f565b815260200190600190039081610a155790505b5090505f5f90505b8280549050811015610aed575f838281548110610a5857610a57611b6b565b5b905f5260205f2001549050604051806040016040528082815260200160015f8481526020019081526020015f206004015f9054906101000a900473ffffffffffffffffffffffffffffffffffffffff1673ffffffffffffffffffffffffffffffffffffffff16815250838381518110610ad457610ad3611b6b565b5b6020026020010181905250508080600101915050610a38565b508092505050919050565b5f60015f8381526020019081526020015f2060040160149054906101000a900460ff169050919050565b5f610b2d825f610d8b565b9050919050565b5f610b3e83610da5565b610b4e57610b4b5f610b22565b92505b610b5782610da5565b610b6757610b645f610b22565b91505b610b75600584846014610db6565b905092915050565b5f610b8784610ea7565b610b9757610b945f610eb8565b93505b610ba083610da5565b610bb057610bad5f610b22565b92505b610bb982610da5565b610bc957610bc65f610b22565b91505b610bd66005858585610eca565b90509392505050565b73ea30c4b8b44078bbf8a6ef5b9f1ec1626c7848d973ffffffffffffffffffffffffffffffffffffffff166365d0509c825f1c336040518363ffffffff1660e01b8152600401610c30929190611fc1565b5f604051808303815f87803b158015610c47575f5ffd5b505af1158015610c59573d5f5f3e3d5ffd5b5050505050565b5f610c7082604001516005610fbd565b610c81610c7c8361100d565b61104f565b9050919050565b73ea30c4b8b44078bbf8a6ef5b9f1ec1626c7848d973ffffffffffffffffffffffffffffffffffffffff166365d0509c835f1c836040518363ffffffff1660e01b8152600401610cd9929190611fc1565b5f604051808303815f87803b158015610cf0575f5ffd5b505af1158015610d02573d5f5f3e3d5ffd5b505050505050565b73ea30c4b8b44078bbf8a6ef5b9f1ec1626c7848d973ffffffffffffffffffffffffffffffffffffffff166365d0509c825f1c306040518363ffffffff1660e01b8152600401610d5b929190611fc1565b5f604051808303815f87803b158015610d72575f5ffd5b505af1158015610d84573d5f5f3e3d5ffd5b5050505050565b5f5f610d99846005856110e8565b90508091505092915050565b5f610daf826111e5565b9050919050565b5f73ea30c4b8b44078bbf8a6ef5b9f1ec1626c7848d973ffffffffffffffffffffffffffffffffffffffff16631888debd8684610df388886111f3565b5f67ffffffffffffffff811115610e0d57610e0c611da9565b5b604051908082528060200260200182016040528015610e3b5781602001602082028036833780820191505090505b506040518563ffffffff1660e01b8152600401610e5b94939291906120e5565b6020604051808303815f875af1158015610e77573d5f5f3e3d5ffd5b505050506040513d601f19601f82011682018060405250810190610e9b9190612136565b5f1b9050949350505050565b5f610eb1826111e5565b9050919050565b5f610ec3825f611291565b9050919050565b5f73ea30c4b8b44078bbf8a6ef5b9f1ec1626c7848d973ffffffffffffffffffffffffffffffffffffffff16631888debd866004610f098888886112ba565b5f67ffffffffffffffff811115610f2357610f22611da9565b5b604051908082528060200260200182016040528015610f515781602001602082028036833780820191505090505b506040518563ffffffff1660e01b8152600401610f7194939291906120e5565b6020604051808303815f875af1158015610f8d573d5f5f3e3d5ffd5b505050506040513d601f19601f82011682018060405250810190610fb19190612136565b5f1b9050949350505050565b8060ff168260ff16146110095781816040517f67cf3071000000000000000000000000000000000000000000000000000000008152600401611000929190612161565b60405180910390fd5b5050565b6110156114bd565b6040518060800160405280835f01518152602001836020015160ff168152602001600560ff16815260200183606001518152509050919050565b5f73ea30c4b8b44078bbf8a6ef5b9f1ec1626c7848d973ffffffffffffffffffffffffffffffffffffffff166327f9c76283336040518363ffffffff1660e01b815260040161109f929190612257565b6020604051808303815f875af11580156110bb573d5f5f3e3d5ffd5b505050506040513d601f19601f820116820180604052508101906110df9190612136565b5f1b9050919050565b5f73ea30c4b8b44078bbf8a6ef5b9f1ec1626c7848d973ffffffffffffffffffffffffffffffffffffffff16631888debd84601a5f67ffffffffffffffff81111561113657611135611da9565b5b6040519080825280602002602001820160405280156111645781602001602082028036833780820191505090505b5061117b898960ff166111768a61137c565b6113d3565b6040518563ffffffff1660e01b815260040161119a94939291906120e5565b6020604051808303815f875af11580156111b6573d5f5f3e3d5ffd5b505050506040513d601f19601f820116820180604052508101906111da9190612136565b5f1b90509392505050565b5f5f5f1b8214159050919050565b60605f600267ffffffffffffffff81111561121157611210611da9565b5b60405190808252806020026020018201604052801561123f5781602001602082028036833780820191505090505b509050835f1c815f8151811061125857611257611b6b565b5b602002602001018181525050825f1c8160018151811061127b5761127a611b6b565b5b6020026020010181815250508091505092915050565b5f5f5f905083156112a157600190505b5f6112ad825f866110e8565b9050809250505092915050565b60605f600367ffffffffffffffff8111156112d8576112d7611da9565b5b6040519080825280602002602001820160405280156113065781602001602082028036833780820191505090505b509050845f1c815f8151811061131f5761131e611b6b565b5b602002602001018181525050835f1c8160018151811061134257611341611b6b565b5b602002602001018181525050825f1c8160028151811061136557611364611b6b565b5b602002602001018181525050809150509392505050565b5f5f8260030b12156113c557816040517f8f568bf80000000000000000000000000000000000000000000000000000000081526004016113bc91906122a0565b60405180910390fd5b8163ffffffff169050919050565b60605f600367ffffffffffffffff8111156113f1576113f0611da9565b5b60405190808252806020026020018201604052801561141f5781602001602082028036833780820191505090505b50905084815f8151811061143657611435611b6b565b5b602002602001018181525050838160018151811061145757611456611b6b565b5b602002602001018181525050828160028151811061147857611477611b6b565b5b602002602001018181525050809150509392505050565b60405180604001604052805f81526020015f73ffffffffffffffffffffffffffffffffffffffff1681525090565b60405180608001604052805f81526020015f60ff1681526020015f60ff168152602001606081525090565b5f604051905090565b5f5ffd5b5f5ffd5b5f819050919050565b61150b816114f9565b8114611515575f5ffd5b50565b5f8135905061152681611502565b92915050565b5f60208284031215611541576115406114f1565b5b5f61154e84828501611518565b91505092915050565b5f819050919050565b5f61156a82611557565b9050919050565b61157a81611560565b82525050565b5f6020820190506115935f830184611571565b92915050565b5f5f604083850312156115af576115ae6114f1565b5b5f6115bc85828601611518565b92505060206115cd85828601611518565b9150509250929050565b5f5ffd5b5f608082840312156115f0576115ef6115d7565b5b81905092915050565b5f5f5f606084860312156116105761160f6114f1565b5b5f61161d86828701611518565b935050602084013567ffffffffffffffff81111561163e5761163d6114f5565b5b61164a868287016115db565b925050604084013567ffffffffffffffff81111561166b5761166a6114f5565b5b611677868287016115db565b9150509250925092565b61168a816114f9565b82525050565b5f6020820190506116a35f830184611681565b92915050565b5f73ffffffffffffffffffffffffffffffffffffffff82169050919050565b5f819050919050565b5f6116eb6116e66116e1846116a9565b6116c8565b6116a9565b9050919050565b5f6116fc826116d1565b9050919050565b5f61170d826116f2565b9050919050565b61171d81611703565b82525050565b5f6020820190506117365f830184611714565b92915050565b5f81519050919050565b5f82825260208201905092915050565b5f819050602082019050919050565b61176e816114f9565b82525050565b5f61177e826116a9565b9050919050565b61178e81611774565b82525050565b604082015f8201516117a85f850182611765565b5060208201516117bb6020850182611785565b50505050565b5f6117cc8383611794565b60408301905092915050565b5f602082019050919050565b5f6117ee8261173c565b6117f88185611746565b935061180383611756565b805f5b8381101561183357815161181a88826117c1565b9750611825836117d8565b925050600181019050611806565b5085935050505092915050565b5f6020820190508181035f83015261185881846117e4565b905092915050565b7f4e487b71000000000000000000000000000000000000000000000000000000005f52602160045260245ffd5b6003811061189e5761189d611860565b5b50565b5f8190506118ae8261188d565b919050565b5f6118bd826118a1565b9050919050565b6118cd816118b3565b82525050565b5f6020820190506118e65f8301846118c4565b92915050565b5f815190506118fa81611502565b92915050565b6006811061190c575f5ffd5b50565b5f8151905061191d81611900565b92915050565b61192c81611774565b8114611936575f5ffd5b50565b5f8151905061194781611923565b92915050565b5f5f5f5f60808587031215611965576119646114f1565b5b5f611972878288016118ec565b94505060206119838782880161190f565b935050604061199487828801611939565b92505060606119a5878288016118ec565b91505092959194509250565b5f82825260208201905092915050565b7f4f666665724d61726b65743a2063616c6c6572206973206e6f7420746865206d5f8201527f65726368616e7400000000000000000000000000000000000000000000000000602082015250565b5f611a1b6027836119b1565b9150611a26826119c1565b604082019050919050565b5f6020820190508181035f830152611a4881611a0f565b9050919050565b7f4f666665724d61726b65743a206f6666657220646f6573206e6f74206d6174635f8201527f6820696e766f6963650000000000000000000000000000000000000000000000602082015250565b5f611aa96029836119b1565b9150611ab482611a4f565b604082019050919050565b5f6020820190508181035f830152611ad681611a9d565b9050919050565b7f4f666665724d61726b65743a206f66666572206973206e6f742070656e64696e5f8201527f6700000000000000000000000000000000000000000000000000000000000000602082015250565b5f611b376021836119b1565b9150611b4282611add565b604082019050919050565b5f6020820190508181035f830152611b6481611b2b565b9050919050565b7f4e487b71000000000000000000000000000000000000000000000000000000005f52603260045260245ffd5b60068110611ba957611ba8611860565b5b50565b5f819050611bb982611b98565b919050565b5f611bc882611bac565b9050919050565b611bd881611bbe565b82525050565b5f604082019050611bf15f830185611681565b611bfe6020830184611bcf565b9392505050565b7f4f666665724d61726b65743a206e6f206f666665727320666f722074686973205f8201527f696e766f69636500000000000000000000000000000000000000000000000000602082015250565b5f611c5f6027836119b1565b9150611c6a82611c05565b604082019050919050565b5f6020820190508181035f830152611c8c81611c53565b9050919050565b7f4f666665724d61726b65743a20696e766f696365206d757374206265204c69735f8201527f7465640000000000000000000000000000000000000000000000000000000000602082015250565b5f611ced6023836119b1565b9150611cf882611c93565b604082019050919050565b5f6020820190508181035f830152611d1a81611ce1565b9050919050565b7f4e487b71000000000000000000000000000000000000000000000000000000005f52601160045260245ffd5b5f611d58826114f9565b91507fffffffffffffffffffffffffffffffffffffffffffffffffffffffffffffffff8203611d8a57611d89611d21565b5b600182019050919050565b5f5ffd5b5f601f19601f8301169050919050565b7f4e487b71000000000000000000000000000000000000000000000000000000005f52604160045260245ffd5b611ddf82611d99565b810181811067ffffffffffffffff82111715611dfe57611dfd611da9565b5b80604052505050565b5f611e106114e8565b9050611e1c8282611dd6565b919050565b5f5ffd5b5f60ff82169050919050565b611e3a81611e25565b8114611e44575f5ffd5b50565b5f81359050611e5581611e31565b92915050565b5f5ffd5b5f5ffd5b5f67ffffffffffffffff821115611e7d57611e7c611da9565b5b611e8682611d99565b9050602081019050919050565b828183375f83830152505050565b5f611eb3611eae84611e63565b611e07565b905082815260208101848484011115611ecf57611ece611e5f565b5b611eda848285611e93565b509392505050565b5f82601f830112611ef657611ef5611e5b565b5b8135611f06848260208601611ea1565b91505092915050565b5f60808284031215611f2457611f23611d95565b5b611f2e6080611e07565b90505f611f3d84828501611518565b5f830152506020611f5084828501611e47565b6020830152506040611f6484828501611e47565b604083015250606082013567ffffffffffffffff811115611f8857611f87611e21565b5b611f9484828501611ee2565b60608301525092915050565b5f611fab3683611f0f565b9050919050565b611fbb81611774565b82525050565b5f604082019050611fd45f830185611681565b611fe16020830184611fb2565b9392505050565b611ff181611e25565b82525050565b6020811061200857612007611860565b5b50565b5f81905061201882611ff7565b919050565b5f6120278261200b565b9050919050565b6120378161201d565b82525050565b5f81519050919050565b5f82825260208201905092915050565b5f819050602082019050919050565b5f6120718383611765565b60208301905092915050565b5f602082019050919050565b5f6120938261203d565b61209d8185612047565b93506120a883612057565b805f5b838110156120d85781516120bf8882612066565b97506120ca8361207d565b9250506001810190506120ab565b5085935050505092915050565b5f6080820190506120f85f830187611fe8565b612105602083018661202e565b81810360408301526121178185612089565b9050818103606083015261212b8184612089565b905095945050505050565b5f6020828403121561214b5761214a6114f1565b5b5f612158848285016118ec565b91505092915050565b5f6040820190506121745f830185611fe8565b6121816020830184611fe8565b9392505050565b61219181611e25565b82525050565b5f81519050919050565b5f82825260208201905092915050565b8281835e5f83830152505050565b5f6121c982612197565b6121d381856121a1565b93506121e38185602086016121b1565b6121ec81611d99565b840191505092915050565b5f608083015f83015161220c5f860182611765565b50602083015161221f6020860182612188565b5060408301516122326040860182612188565b506060830151848203606086015261224a82826121bf565b9150508091505092915050565b5f6040820190508181035f83015261226f81856121f7565b905061227e6020830184611fb2565b9392505050565b5f8160030b9050919050565b61229a81612285565b82525050565b5f6020820190506122b35f830184612291565b9291505056fea264697066735822122003c83f5f7e7a5d1f37caa95a823a35fc72f6130a787ef2a2be13822dcb58fe9864736f6c634300081c0033",
  "linkReferences": {},
  "deployedLinkReferences": {}
}